:020000040800F2
:100000006808002085020008E13B0008192F00085D
:10001000DD3B0008BD0E00080D3E0008000000009A
:10002000000000000000000000000000E93B0008A4
:10003000C10E000800000000E53B0008ED3B000891
:100040009F0200089F0200089F0200089F0200080C
:100050009F0200089F0200089F0200089F020008FC
:100060009F0200089F0200089F0200089F020008EC
:100070009F0200089F0200089F0200089F020008DC
:100080009F0200089F0200089F0200080000000075
:100090000000000000000000000000009F020008B7
:1000A0009F0200089F0200089F0200089F020008AC
:1000B0009F0200089F0200089F020008292F0008E5
:1000C0001D2F00089F0200089F0200089F020008E1
:1000D0009F020008013E00089F0200080000000087
:1000E0009F0200089F0200089F0200080000000015
:1000F0000000000000000000000000009F02000857
:10010000000000009F0200089F0200089F020008F4
:1001100000000000000000000000000000000000DF
:100120009F0200089F0200089F0200089F0200082B
:100130009F02000800000000000000000000000016
:100140000000000000000000000000009F02000806
:100150009F0200089F0200089F0200089F020008FB
:100160009F0200089F02000800000000000000003D
:10017000000000000000000000000000000000007F
:10018000000000009F0200080000000000000000C6
:100190009F02000800F002F800F065F814A696E847
:1001A000000CB244B344DA4501D100F05CF8BAE87F
:1001B0000F000FA696E83000A5EB040504EB060738
:1001C000AAEB0704A7F101074FEA15154FEA34140B
:1001D000A4F10104AC4201D300F045F813F0010F83
:1001E00018BFFB1A43F0010300F001F8DBE71847E2
:1001F000D4530000F4530000103A24BF78C878C1EB
:10020000FAD8520724BF30C830C144BF04680C601C
:1002100070470000704700000023002400250026DE
:10022000103A28BF78C1FBD8520728BF30C148BF59
:100230000B607047662905F0D480782900F01E8194
:10024000732900F0C284002070471FB505F0B7F88D
:1002500000F0C0FC04000020002104F0F1FBE0608D
:100260001FBD10B510BD00F0B5FD1146FFF7EDFF45
:1002700003F0CEFD00F0D3FD03B4FFF7F2FF03BCA3
:1002800000F014FE0948804709480047FEE7FEE7F2
:10029000FEE7FEE7FEE7FEE7FEE7FEE7FEE7FEE736
:1002A00004480549054A064B70470000F13B000829
:1002B00095010008680200206808002068040020FA
:1002C0006804002053EA020C00F069802DE9F04B2D
:1002D0004FF00006002B1FBFB3FA83F503FA05F4B5
:1002E00024FA05F65E4012BF1643B2FA82F502FA0E
:1002F00005F4C5F120051EBF22FA05FC44EA0C04F2
:10030000203556EA044C4FEA144418BF641C4FF0E1
:1003100000084FF00009904271EB030C39D300291B
:1003200019BFB1FA81F701FA07F6B0FA80F700FABF
:1003300007F6C7F120071EBF20FA07FC46EA0C06A5
:100340002037B6FBF4FCA7EB0507103F07F01F0BA7
:10035000CBF120062CFA06F60CFA0BFB44BFB34691
:100360000026202FA4BF5E464FF0000B5BEA060C70
:1003700008BF4FF0010B19EB0B0948EB0608ABFB6C
:10038000027C06FB02CC0BFB03CCC01B71EB0C0107
:10039000C1E70B46024641464846BDE8F08B13B51F
:1003A000084318BF4FF0FF300146AFF30080BDE8AF
:1003B0001C4070470FB41CB5074B06AA7B44694626
:1003C0000090059800F0D7FB0020694600F0E6FB9E
:1003D0001CBC5DF814FB0000DD07000070B504468E
:1003E00085690068C10601D5302600E02026C007D7
:1003F00007D070BDD4E9012130469047206A401CE7
:1004000020626D1EF6D570BD70B504468569007812
:10041000C00707D170BDD4E9012120209047206A90
:10042000401C20626D1EF6D570BD70B50C460546A9
:10043000012A05D02878800600D5EA69002302E069
:10044000012305E05B1C934202D2E05C0028F9D155
:10045000A869E618C01AA861286A184428622846C4
:10046000FFF7BCFF04E0D5E9012114F8010B904728
:10047000B442F8D32846FFF7C7FF70BD70B50446F5
:100480000D4621461068AFF300802188090502D58A
:100490000F4A7A4402E00E4A7A440E32002104F1F7
:1004A000240305E000F00F060009965D5E54491C28
:1004B0000028F7D120780023000704D5702D02D042
:1004C00009B1022311322046BDE8704000F0E7B8C0
:1004D000504F00002DE9F05F894604464FF0000AB6
:1004E000DFF824B1FB44C0F820A02046E16888472B
:1004F00000287DD0252806D0D4E901219047206A24
:10050000401C2062F1E700255F462046E1688847ED
:100510002028064607DB312E05D2B81910F8200C2A
:1005200008B10543F1E7A80701D525F00405C4F893
:100530001CA00027C4F818A02A2E09D0304604F0C9
:1005400077FA38B304EB8708303EC8F8186019E032
:1005500059F8041B204604EB87029161E168884743
:10056000012F064618D1E069002820DA25F0200581
:100570001DE0D8F8180000EB800006EB4000303892
:10058000C8F818002046E1688847064604F050FA8B
:100590000028EED1012F0AD02E2E08D12046E16886
:1005A00088477F1C0646022F45F02005C4DBA06962
:1005B000002803DA404245F00105A061E80701D0B8
:1005C00025F01005A6B1A6F14100192802D8203661
:1005D00045F400654A463146204625604D46FFF702
:1005E00029FE60B1012807D0ED1D25F0070000E0CD
:1005F00007E000F1080978E705F1040975E73046DE
:100600007AE7206ABDE8F09F264F000010B5431C32
:1006100002E010F8011B71B18107FAD14FF00132ED
:1006200002C88C1A8C4314EAC211F9D0C01A0A0607
:1006300003D0C01E10BDC01A10BD0A0401D0801E18
:1006400010BD0902FCD0401E10BD4FF0000200B5E5
:10065000134694469646203922BFA0E80C50A0E8E5
:100660000C50B1F12001BFF4F7AF090728BFA0E893
:100670000C5048BF0CC05DF804EB890028BF40F85F
:10068000042B08BF704748BF20F8022B11F0804FA1
:1006900018BF00F8012B70477047704770472DE96D
:1006A000F0470D4699469246044600F12408016839
:1006B000880604D5E06921F01001216000E00120E6
:1006C000A84201DD471B00E00027A1697A1902EB6F
:1006D0000900081AA0612078C00602D42046FFF75E
:1006E0007DFE002608E0D4E901211AF806009047B3
:1006F000206A401C761C20624E45F4DB2078C00640
:100700000AD52046FFF76AFE06E0D4E90121302031
:100710009047206A401C2062381EA7F10107F4DCD4
:1007200007E0D4E9012118F805009047206A401C31
:100730002062281EA5F10105F3DC2046FFF764FEC8
:100740002078000602D50220BDE8F0870120FBE7F3
:100750002DE9FF4F0C461E464FF0FF378BB0D2E914
:100760000001DDF860800A908A46C1F30A5505B998
:100770003D46002108464FF00000BAF1000F00F49A
:10078000400005DA00EB80004FF4400101EA500020
:100790004FEA9059B9F1010F00DDB9460A9850EAC5
:1007A0004A000ED044F61050A5F2FF3545432F14F1
:1007B000B8F1000F1ED07542291E1EDDC9F10002DE
:1007C0001CE0B8F1010F4FF0000001D0302103E030
:1007D000F24305E02154401CB042FBDB30460022CE
:1007E000002121540B99C1F80880C1E900200FB005
:1007F000BDE8F08FBD1B6D1CDEE74A4600DA69429A
:1008000006A800F071FA06AB93E8070003AB83E893
:10081000070050460A9903F02BFD8DE80700A0F56C
:1008200000501F3800900398002D0ADD42F21F018E
:100830004A460844002303A90390684603F094FF46
:1008400009E0A0F500504A461F38002303A9039091
:10085000684603F09EFF8DE807000004000C03D0FB
:100860004FF0FF30410800E01046B8F1000F03D010
:100870000022009215461EE0751E05D400F0AEF968
:10088000303262556D1EF9D5B3460122084302D0BD
:1008900000227F1C04E02078302801D100227F1E36
:1008A000002A099784D01DE0112D07DA00F096F98F
:1008B000303262556D1C50EA0102F5D1084302D076
:1008C0000098C8B10EE00021681E05E0235C625C60
:1008D00063542254401E491C8142F7DBAB46A81BDF
:1008E000401E0990002004F80B000B98099AC0F8EC
:1008F0000880C0E9002B7AE711264FF0000857E77F
:100900002DE9F04F88460446D21D22F0070191B030
:10091000D1E90001CDE90A0104F072F802460B9812
:10092000C00F01D02D2007E02068810701D52B20C2
:1009300002E0202101EAC000032A099001D0072A21
:1009400005DB03464146204600F08EF90BE1207896
:10095000800601D5E06900E00620B8F1650F814608
:1009600006D0B8F1660F18D0B8F1670F70D131E03A
:100970000020B9F1110F009001DB112301E009F112
:1009800001030AAA01A90CA8FFF7E2FEDDE90C7039
:10099000002609F10105834647E001204B460090FF
:1009A0004FF000470AAA01A90CA8FFF7D1FEDDE924
:1009B0000DB00C995D46002610B909F101000D1823
:1009C000B9EB050003D4C0F1FF3609F10105A5EB31
:1009D00009002BE0B9F1010F01DA4FF00109002005
:1009E000B9F1110F0090484601DD112300E00346E4
:1009F0000AAA01A90CA8FFF7ABFEDDE90C704D4671
:100A000000268346207800070AD4AB4500DA5D460D
:100A100001A8012D04DD411911F8011C302907D06E
:100A20004F4502DA17F1040F04DA012082460FE085
:100A30006D1EEEE7002F02DCED1B3E4403E0781C48
:100A4000A84200DD7D1CB81B00F1010A4FF00047F1
:100A50002078000703D4AA4501DB4FF0FF3A0021BC
:100A6000B7F1004F0DF143088DF8431024D0022058
:100A70002B23002F01DA7F422D230A21021EA0F131
:100A8000010000DC5FB197FBF1FC97FBF1F201FB89
:100A90001C7C17460CF1300C08F801CDEEE7A8F1EC
:100AA000010003702188090501D5452100E0652179
:100AB000A0F1010800F8011C09980FA9A1EB080793
:100AC000FF1D00B10120411901EBEA70A169384412
:100AD000081A401EA0612078C00602D42046FFF705
:100AE0007DFC099828B1D4E901219047206A401C77
:100AF00020622078C00622D52046FFF76FFC1EE05A
:100B0000002E04DBB34502DD01A8805D00E030204B
:100B1000D4E901219047206A401C2062761CAAF18A
:100B200001005FEA000A0AD100F054F8C0680168C9
:100B3000405CD4E901219047206A401C2062281EB5
:100B4000A5F10105DCDC07E0D4E9012118F8010B6F
:100B50009047206A401C2062381EA7F10107F3DC91
:100B60002046FFF751FC032011B041E601694A1C01
:100B700002610878704700B58FB0CDE901310021DE
:100B8000059105497944CDE9031011466846FFF700
:100B9000A1FC0FB000BD0000E5FFFFFF0A6802F8EE
:100BA000010B0A60704710B5436913B1AFF30080C1
:100BB00001E0FFF73AFC012010BD127800F124019A
:100BC0000A7000224A700122EDE711684FF0FF32EF
:100BD000E9E70000004870473000002030B5B0F170
:100BE0000A0271F100034FEA900E4EEA817EB0EBEB
:100BF0000E0061EB91014FEA101E4EEA017E10EBF0
:100C00000E0041EB11114FEA102E4EEA016E10EB6F
:100C10000E0041EB11214FEA104E4EEA014E10EB4F
:100C20000E0041EB1141401841F100014FEAD000A4
:100C300040EA41704FEAD1014FEA810444EA9074DE
:100C400010EB800544EB01046D1944EB0404521BC6
:100C5000A3414FF0000348BF0A3200D530BD401C0D
:100C600041F1000130BD00002DE9F0411F4604466E
:100C700003260168072A01F4006004DB08B116A509
:100C800005E016A503E008B115A500E015A521F0C3
:100C900010002060A069C01EA0610FB1401EA061BD
:100CA0002046FFF79BFB4FB1D4E90121384690471E
:100CB000206A401C2062C01C206206E0206AFAE71D
:100CC000D4E9012115F8010B9047761EF8D2204691
:100CD000FFF79AFBBDE8F0814E414E006E616E0059
:100CE000494E4600696E66002DE9F047814616467A
:100CF0008AB0354878440DC88DE80D0032487844F4
:100D0000801C03AC0DC884E80D0041F69B300844FC
:100D1000372190FBF1F290FBF1F5A5F1800501FB85
:100D200012041B3C02D56442012000E00020DFF8E1
:100D300098A080460027FA44AAF1BE0A0EE0E00718
:100D40000AD03246684607EB470101230AEB8101CE
:100D500003F01FFD8DE8070064107F1C002CEED10E
:100D6000194F7F44AE3F19E0E80715D007EB041098
:100D70000DF1180A90E80E008AE80E00C068F042F3
:100D800001D1981908903246012306A903A803F05F
:100D900000FD03AB83E807006D10641C002DE3D158
:100DA0004FF0010332466946B8F1000F03A802D0A4
:100DB00003F0DAFC01E003F0ECFCC9E90001C9F83A
:100DC00008200AB0BDE8F087A4470000004870473B
:100DD000100000207546FFF7F9FFAE460500694692
:100DE000534620F00700854618B020B5FFF758FAA3
:100DF000BDE820404FF000064FF000074FF000081C
:100E00004FF0000BAC46ACE8C009ACE8C009ACE858
:100E1000C009ACE8C00921F007018D46704710B544
:100E20000446AFF300802046BDE81040FFF724BA27
:100E300030B44FF0013C50F8042B51F8043BCCFA8D
:100E400052F4D51A20D1FCB950F8042B51F8043BC8
:100E5000CCFA52F4D51A17D1B4B950F8042B51F882
:100E6000043BCCFA52F4D51A0ED16CB950F8042BCD
:100E700051F8043BCCFA52F4D51A05D1002CDAD043
:100E800030BC4FF00000704729BAB1FA81F111F07F
:100E90001801D1F120008440F2D1CA40CB4012F0B9
:100EA000FF0213F0FF0330BCD01A7047014918202D
:100EB000ABBEFEE72600020070470000FEE7000020
:100EC0007047000070B5866D044600F051F994F843
:100ED0003510022928D105462068216C026822F0CD
:100EE00016020260426922F08002426109B9A16CD7
:100EF00019B1016821F008010160016821F00101C8
:100F0000016000BF20680068C00715D000F030F90C
:100F1000401B0628F6D320206065032084F83500A6
:100F2000002184F8341070BD80206065012000210C
:100F300084F8341070BD00BFE06D3F2101FA00F06D
:100F4000B060012084F835000020002184F83410BE
:100F500070BD000090F83510022909D1052180F8F4
:100F600035100068016821F0010101600020704720
:100F7000802141650120704790F8350070470000DE
:100F8000B0B5044600F0F4F8054640F20000C2F2A5
:100F900000000078611C18BF044400BF00F0E8F8AE
:100FA000401BA042FAD3B0BD2DE9F04F82B000F152
:100FB0003E4707F1FF77860546EA972741F200068C
:100FC000C4F20206072243F6004EB04208BF0422D4
:100FD000C4F2010E042F38BF3A46002600274FF016
:100FE0000008009209E000BF08F101080237B8F1DB
:100FF000100F06F1040600F0A3800D68012202FA2A
:1010000008F415EA0409EFD0D1F804B003220BF07C
:10101000030CACF10105BA40012D6FEA020A0FD8AA
:101020008268CD6802EA0A02BD402A4382604268B3
:10103000A243CBF3001404FA08F42243426005E013
:10104000BCF1030F02D14FF0030C1EE0C2688C68A4
:1010500002EA0A02BC402243BCF1020FC26014D172
:101060006FF0030202EA58020244D2F820C006F0F0
:101070001C040F230D69A3402CEA0303A5402B4356
:101080001362D1F804B00BF0030C02680CFA07F3FA
:1010900002EA0A021A431BF4403F0260A4D0002275
:1010A00043F644030192C4F202031A684FF6084C57
:1010B00042F480421A601A68CFF6FF7C02F4804244
:1010C0000192019A28F00302724452F80C3006F0A3
:1010D0000C050F24AC40A343009C04FA05F52B43F8
:1010E00042F80C30DEF808204B6842EA090543F666
:1010F0000C4CDC0258BF22EA0905CEF80850C4F2B5
:10110000010CDCF800209C0242EA090558BF22EAE3
:101110000905CCF80050DEF804209C0342EA0905DA
:1011200058BF22EA0905CEF80450DEF80020DB03A0
:1011300042EA090558BF22EA0905CEF8005053E7F4
:1011400002B0BDE8F08F00000069084018BF012020
:1011500070470000426902EA0103914341EA0341FA
:1011600081617047002A08BF09048161704700004F
:1011700040F26020C2F20000006870477047000033
:1011800070470000F0B581B004460068002547694B
:10119000426894F83E1002F48076FA0505D5002ED8
:1011A0001EBF6FF4807242610125BA0505D5002E7D
:1011B0001EBF02356FF4007242617A0516D5AEB1DA
:1011C000628D94F83D30D4F830C0202908BF002A41
:1011D00024D06FF48062402905F10405426101D0FA
:1011E000102903D1016841F400710160380507D569
:1011F00036B1206808356FF40061416101E000BF3D
:1012000055B1206C40EA05012046216401B0BDE8DB
:10121000F04001F021BF00BF01B0F0BD03F0F701C5
:10122000212909D0282B08BFBCF1210F04D06FF46D
:10123000806141610435D9E794F83D10E26AB2F16A
:10124000080318BF0123203A18BF0122134208BF28
:10125000282921D0212939D10021CFF6FF71E1625F
:1012600021212163202184F83D10002184F83E10C3
:10127000426822F4E06242606FF480624261026878
:1012800022F4806202604269120648BF0161204672
:1012900000F036FEAAE700BF0021CFF6FF71E16241
:1012A000416821F4E06141606FF48061416101684F
:1012B00021F48061016000202021206384F83D102A
:1012C00084F83E00204600F0AFFB8FE76FF48061AA
:1012D00041618BE7F0B581B0076804467868E26A3F
:1012E00094F83E3094F83DE0402B01D0102B1BD1F8
:1012F000BD697E69F10745D1B2F12A4F00F06082E5
:10130000B2F52A0F00F05C82310700F4007240F160
:101310000981002A00F00681606B616C0028C9B267
:10132000396140F0EE80EEE0216C00F4007300299A
:101330000CBFBD6900257E69B1073DD5E3B3206CC4
:10134000002818BFBD6994F83D0000F02800282847
:1013500074D17868012120F48060786005F0040081
:1013600081EA900128064FF0180058BF0C20225A3D
:101370000023204684F83C3001B0BDE8F040FFF780
:10138000FFBE00BF810541D44FF0010C79686A07A8
:1013900042D4090500F1148206F04401402940F0CE
:1013A000318110F4806000F02D81204601B0BDE84D
:1013B000F04001F093BF00BFF1064BD5002B49D0A0
:1013C00094F83D50786820F4E06078600020009048
:1013D00078690090386840F00100386000983868FB
:1013E00020F4806038607868000540F1508105F095
:1013F000F7002646222840F0298156F8380F016868
:10140000496826F80E1C36F80E1C27E1E06AB0F594
:101410002A0F51D1012054E0090500F1D18106F0D5
:101420008401802940F0FE8010F4806000F0FA8092
:10143000204601B0BDE8F04002F036B80020009030
:1014400079690091B9690091009984F83C0001B074
:10145000F0BD00BF0EF0F701212940F0958006F0A5
:101460008401802940F0648110F4806000F0608184
:1014700094F83D00618D002900F0A281616A11F8A5
:10148000012B3A616162618D01396185618D0029AD
:1014900008BF292840F094817868282120F48060D2
:1014A000786021202063204684F83D1001B0BDE81B
:1014B000F04000F025BD00BFE06AB0F12A4F01D135
:1014C0000820E06294F83E0040280BD1206D616C4A
:1014D000002801F0FE0018BF40F00100386101B0A3
:1014E000F0BD00BF2069B0F5804F7BD194F83D007E
:1014F000616C212801F0FE0118BF01313961606B78
:1015000008B1C06B38B9A06B002800F05981C06BDE
:10151000002800F05581786840F40060786001B0E0
:10152000F0BD00BF4FF0010CB1078CEA522C7FF5E3
:101530002DAF002A3FF42AAF94F83E30E06A226BC8
:1015400094F83D10222940F0FF80216D002908BF4A
:10155000402B00F0F980216D002940F03381216992
:10156000B1F5404F40F02E81002000907869009046
:10157000B86900900098386840F480703860206D39
:101580000130206501B0F0BD06F04401402940F073
:10159000E58010F4806000F0E18094F83D00618DFA
:1015A000002900F00D813969626A1170616A0131A8
:1015B0006162618D01396185618D002908BF2A282A
:1015C00040F0FE802068416821F480614160222063
:1015D00028212063204684F83D1001B0BDE8F0408A
:1015E00000F08CBC206D002800F0C880206D012820
:1015F00040F0E680606C062101EAD010F1303861DD
:1016000001B0F0BD06F00400012181EA900050EA2B
:101610000C0040F0D580204601B0BDE8F04001F05C
:10162000E1BD00BF06F00400012181EA900050EA0C
:101630000C0040F0C580BEF1210F40F0B98020467B
:1016400001B0BDE8F04001F0EDBE00BF56F8340F28
:101650000168496826F80A1C36F80A1C19B1216C81
:1016600041F004012164796821F400617960FFF799
:1016700083FC01280BD0306842F63571C0F60001BA
:101680000165FFF767FC10B13068016D8847608D18
:1016900060B120684169490730D4416949063AD4AC
:1016A000608D18B1206C40F004002064206C28B1DB
:1016B000204601B0BDE8F04001F0CEBC2A2D07D194
:1016C00000202063282084F83D00204600F016FC0E
:1016D00094F83D00282859D10020CFF6FF70E06231
:1016E00000212020216384F83D00204684F83E102C
:1016F00001B0BDE8F04000F097B900BF0069616A31
:101700000870616A206801316162618D013961850B
:1017100041694906C4D50069616A0870606A013090
:101720006062608D01386085608D0028BAD1BDE7A8
:10173000700745D5002B43D0608D002840D0606AEB
:1017400010F8011B396113E00020009078690090C7
:10175000B8690090009801B0F0BD00BF70072FD5A8
:1017600073B3608D60B33869616A0870606A013074
:101770006062608D0138608522E000BF606C0621E8
:1017800001EAD010F030386101B0F0BD206B2228A2
:1017900018BF222D14D100212020216384F83D00A0
:1017A000204684F83E1001B0BDE8F04000F0A6BB32
:1017B000402B05D1204601B0BDE8F04001F0CEBE7F
:1017C00001B0F0BD618D51B1618D012916D1202884
:1017D00018BF082826D1386820F4806038600020BF
:1017E000009078690090B86900900098386840F4DB
:1017F000007038600020206501B0F0BD618D0229C5
:101800000CD1102832D8012114228140C0F20102EB
:1018100011422BD04FF480622EE000BF396841F4B2
:1018200080612BE010F5803F0CD1386820F4806097
:10183000386078680005D2D5386820F48060386058
:101840002FE000BF122A01D10128C4D11028F3D8FB
:10185000012101FA00F01421C0F201010842EBD08D
:10186000386840F4806038601BE000BF39684FF48E
:10187000006221F480613960396811433960796808
:1018800009050ED5421E1F2A16D80121914048F2A3
:101890008102C8F2000211420ED0786840F48050F4
:1018A00078600020009078690090B86900900098F6
:1018B0000020206501B0F0BD10F5803FEDD0F0E7CD
:1018C00070470000002804BF01207047F0B581B0C8
:1018D000044690F83D0028B9002084F83C002046DA
:1018E00000F0C6FA242084F83D002068016821F049
:1018F00001010160016841F400410160016821F4C7
:101900000041016000F068FC636848F2A16CC0F21D
:10191000010C40F60011C0F23D0163453CBF48F2A6
:101920008041C0F21E01884202D2012001B0F0BD08
:101930004DF68361C4F21B31A0FB01122168970CA4
:10194000D1F804E04FF496762EF03F0545EA924533
:101950004D60774348F638160D6AC0F24106A7FB82
:10196000067625F03F07634538BF960C721C3A4354
:101970000A62CA6948F2A0664CF6FF77C0F2010617
:10198000B34222EA07020BD801385B00B0FBF3F048
:1019900001306FF31F30042898BF04201BE000BF04
:1019A000A768013857B119277B43B0FBF3F001302A
:1019B0006FF31F3070B100F5804007E003EB430385
:1019C000B0FBF3F001306FF31F3018B100F50040A9
:1019D00001E000BF01201043C8610868D4E9072373
:1019E00020F0C000104318430860886848F2FF32B6
:1019F00004F10C0790438CCF18431043A66988600C
:101A0000C86820F0FF0038433043C860086840F0E1
:101A10000100086000202021206484F83D1020632C
:101A200084F83E0001B0F0BD704700007047000030
:101A3000704700002DE9F04383B01E4617468946E3
:101A40000446FFF795FB94F83D10202924D1054664
:101A5000206800BF816989071AD5FFF789FB411B00
:101A600020681A29F6D381698907F3D5002020213F
:101A7000206384F83D1084F83E00216C41F0200181
:101A8000216484F83C00022003B0BDE8F08300BF6D
:101A900094F83C10012903D1022003B0BDE8F08383
:101AA000012184F83C100168C90703D1016841F0A5
:101AB00001010160016840F2020821F40061016047
:101AC000212184F83D10102184F83E10002121646A
:101AD00067626685618DC0F201082185A8F1021157
:101AE000E162E16A0A9E11F5803F18BF01291DD10C
:101AF000016841F48071016020464FF0011100221D
:101B00003346009501F072FE50B120680068C005B0
:101B100044BF4FF400702064012003B0BDE8F0839F
:101B20002069B0F5804F07D1FE2015E00829DFD0ED
:101B3000216B1229DCD0DFE7062000EAD9102168EA
:101B4000F030086108F10601204632462B4601F0CC
:101B500033FF0028E0D1FF20216800EA0900086176
:101B60002046414632462B4601F026FF0028D3D1BD
:101B700000200290206841690291806902900298D9
:101B800006E000BF204631462A4601F0D1FD18BBD1
:101B9000208D68B3204631462A4601F0C1FFD8B9EE
:101BA000606A2168024612F8013B0B616262628D35
:101BB000013A6285228D531E23854F697F07E1D547
:101BC0001B04DFD0437802300B616062608D013806
:101BD0006085901E2085D5E7206C04289CD1206864
:101BE000016841F400710160012003B0BDE8F08399
:101BF0002068016841F400710160202084F83D00F4
:101C0000002084F83E0084F83C0003B0BDE8F08377
:101C100070470000704700002DE9F04784B09946F6
:101C200016460F460446FFF7A3FA94F83D10202904
:101C300027D10546206800BF816989071CD5FFF7B9
:101C400097FA411B20681A29F6D381698907F3D5D1
:101C500000202021206384F83D1084F83E00206C91
:101C600004F13C0A40F020002064022000218AF8A0
:101C7000001004B0BDE8F087A2461AF83C1F012905
:101C800004D1022004B0BDE8F08700BF01228AF829
:101C900000200368DDE90D180C9ADB0703D1036807
:101CA00043F001030360036823F400630360222010
:101CB00084F83D00402084F83E00002020646262E9
:101CC0006185608D394620850020CFF6FF70E06287
:101CD000204632464B46CDE9008501F09FFC18B105
:101CE000012004B0BDE8F087208DA8B102282BD0D8
:101CF000012835D121680A6822F480620A60002236
:101D000003924A6903928A690392039A0A6842F429
:101D100000720A602CE000BF002003902068416937
:101D20000391816903910399016841F40071016095
:101D3000202084F83D00002084F83E0000218AF82D
:101D4000001004B0BDE8F08721680A6822F48062C0
:101D50000A600A6842F400620A600022039202E00C
:101D60000021039121684A690392896903910399CB
:101D70000427C0F201070CE010690870606A218D29
:101D800001306062481E2085618D01396185010442
:101D9000CED080B203280FD802284AD001282DD1F6
:101DA000204641462A4601F073FE002898D120685B
:101DB000616A0069E1E700BF204641462A4601F01A
:101DC00067FE00287FF48CAF2068616A00690870A4
:101DD000606A2268411C208D616201382085638D14
:101DE000013B638553695B07D1D580B20328C3D11A
:101DF000106820F480601060BEE700BF20463946BE
:101E000000224346009501F0F1FC00287FF468AF02
:101E10002068616A026822F48062026000690870CA
:101E2000606A218D01306062481E2085608D013816
:101E300060852046394600224346009501F0D6FCD5
:101E400000287FF44DAF2068616A026842F4007296
:101E5000026000690870606A2268411C6162218D1D
:101E600001392185618D013961851169417085E7ED
:101E7000016845F20040C4F20000814218BF70477B
:101E8000B0B586B0002443F630050194C4F20205D3
:101E9000296800F5D83041F002012960296801F075
:101EA0000201019101994FF4407101911221CDE994
:101EB0000214032104910421059101A9FFF774F88C
:101EC00000942869002140F400102861286900224C
:101ED00000F40010009000981F2000F08FF81F20E1
:101EE00000F07AF820200021002200F087F820205E
:101EF00000F072F806B0BDE8B040704770470000CF
:101F00007047000040F2000040F26021C2F2000081
:101F1000C2F2000100780A681044086070470000AF
:101F200080B543F60040C4F20200016841F400713C
:101F30000160016841F480610160016841F48071D1
:101F40000160032000F086F80F2000F005F800F093
:101F500027F8002080BD000070B540F20006C2F2F4
:101F6000000640F208013278C2F200014FF47A73A1
:101F70000968B3FBF2F20446B1FBF2F1084600F047
:101F800061FB0F2C4FF0010508D838B94FF0FF3036
:101F900021460022002500F031F87460284670BD0B
:101FA00082B0002043F640010190C4F202014A6869
:101FB00042F480424A604A6802F480420192019AE7
:101FC0000090086840F080500860086800F0805079
:101FD0000090009802B07047002848BF704700F09A
:101FE0001F01012202FA01F11C2202EAD0004EF286
:101FF0000012CEF2000281507047000010B54EF67C
:102000000C5CCEF2000CDCF80030C3F3022E8EF034
:102010000704042C28BF0424BEF103034FF0FF3E45
:102020000EFA04F438BF0023A14399400EFA03F3DB
:102030009A43114300F00F0200F160430901043A92
:1020400003F564436244002848BF02F10C03197091
:1020500010BD00004EF60C51CEF200010A684FF69A
:10206000FF031A4060F30A2242F0806040F0FD70E6
:1020700008607047002804BF012070472DE9F04137
:1020800043F60808C4F202080446D8F8F8030D46DF
:1020900000F00700884207D288F8F853D8F8F80310
:1020A00000F00700A84277D12068810717D54107C3
:1020B00005D5D8F8001041F4E051C8F80010010728
:1020C00005D5D8F8001041F46041C8F80010D8F8E0
:1020D0000010A26821F0F0011143C8F80010C007F9
:1020E00040D1D8F8F80300F00700A84207D988F8D3
:1020F000F853D8F8F80300F00700A8424CD1206844
:10210000410707D5D8F80010E26821F4E0511143E7
:10211000C8F80010000708D5D8F80000216920F49D
:10212000604040EAC100C8F8000000F07DF8D8F82F
:10213000001045F2B442C1F30311C0F60002515C35
:1021400040F2080220FA01F140F20400C2F200005D
:102150000068C2F200021160FFF7FEFE0020BDE839
:10216000F08100BF6068811E022907D258F8081C60
:1021700089015CBF0120BDE8F08111E0012807D191
:1021800058F8081C89035CBF0120BDE8F08107E016
:1021900058F8081C890703D40120BDE8F08100BF6E
:1021A000D8F8001021F003010843C8F80000FEF73A
:1021B000DFFF064641F28837D8F80000616800F07A
:1021C0000C00B0EB810F8CD0FEF7D2FF801BB84221
:1021D000F2D90320BDE8F08140F2080043F608017F
:1021E000C2F20000C4F202010068096845F2C4426C
:1021F000C1F38221C0F60002515CC8407047000064
:1022000040F2080043F60801C2F20000C4F20201E5
:102210000068096845F2C442C1F34231C0F60002C9
:10222000515CC8407047000010B543F60404C4F286
:102230000204606800F00C0008280BD0042819BFC5
:1022400042F20040C0F2F40047F64000C0F27D10B8
:1022500010BD00BF206821682368490247F640018D
:10226000C0F27D1100F03F02C3F388105CBF42F260
:102270000041C0F2F401A1FB00010023FEF722F8A7
:1022800021680222C1F3014102EB4101B0FBF1F0F0
:1022900010BD0000002804BF012070472DE9F04167
:1022A00082B00446007843F60006C007C4F2020676
:1022B0000CD0B06800F00C00042840F08180306839
:1022C000800303D56068002800F06A8120788007C9
:1022D0001BD5B06810F00C0F09D0B06800F00C00EE
:1022E000082840F087807068400200F183803068E1
:1022F000800703D5E068012840F0528130682169E9
:1023000020F0F80040EAC10030602078000713D4C4
:10231000207840072AD4A569002D00F03C81B068E0
:1023200000F00C00082840F0A180012D40F0108141
:10233000012002B0BDE8F0816069002840F2000091
:10234000C4F2472000F07E800121C0F8801EFEF715
:102350000FFF0546706F8007DAD4FEF709FF401BB8
:102360000228F7D9032002B0BDE8F081306C5FEAA3
:10237000C0080AD400200190306C40F080503064D6
:10238000306C00F080500190019847F20007C4F2D1
:1023900000073868C00547D4386840F4807038605A
:1023A000FEF7E6FE054600BF3868C0053CD4FEF7E0
:1023B000DFFE401B0228F7D9032002B0BDE8F08100
:1023C000B06800F00C00082803D1706840023FF5A7
:1023D00076AF6068B0F5803F07D0B0F5A02F40F031
:1023E0009B80306840F480203060306840F480305A
:1023F00030609BE0E06800285CD00020C4F24720F9
:1024000001210160FEF7B4FE054600BF3068800779
:102410003FF574AFFEF7ACFE401B0228F6D903204F
:1024200002B0BDE8F08100BFA068012805D00528F2
:1024300054D1306F40F004003067306F40F001003D
:10244000306755E00021C0F8801EFEF791FE05467A
:10245000706F80077FF55CAFFEF78AFE401B022895
:10246000F6D9032002B0BDE8F08100BF0027C4F216
:10247000472700203866FEF77BFE022D05460DD16A
:102480003068800140F19080FEF772FE401B022808
:102490004FF00300F4D902B0BDE8F081306880014C
:1024A00079D5FEF765FE401B02284FF00300F5D9F1
:1024B000F1E700BF0020C4F2472000210160FEF7D1
:1024C00057FE0546306880077FF51FAFFEF750FEC8
:1024D000401B02284FF00300F4D9DCE7316F0028DD
:1024E00021F001013167316F21F0040131677DD0A6
:1024F000FEF73EFE054641F2883700BF306F800789
:1025000000F18680FEF734FE401BB842F6D9032066
:1025100002B0BDE8F08100BF3168002821F48031AD
:102520003160316821F4802131607BD0FEF720FEDC
:10253000054600BF306880033FF5C8AEFEF718FEC1
:10254000401B6428F6D9032002B0BDE8F08100BF2B
:102550007068E16900F480028A4221D1216A00F0AA
:102560003F028A421CD147F6C071626A0140B1EB5A
:10257000821F15D1A16A4FF6FF73C903994300F476
:102580004032A1F580318A420AD1E16A00F07060E0
:10259000B0EB016F04D1002002B0BDE8F08100BFB4
:1025A000012002B0BDE8F08104F11C052FCD0843E5
:1025B00040EA8210D9034FF6FF729143A1F58031B2
:1025C00040EA05600843706001203866FEF7D0FDE0
:1025D000044600BF30688001DDD4FEF7C9FD001B52
:1025E00002284FF00300F5D955E700BFFEF7C0FD04
:1025F000054641F2883700BF306F800708D5FEF7E7
:10260000B7FD401BB8424FF00300F5D943E700BFC8
:10261000B8F1000F3FF57FAE306C20F08050306491
:1026200079E600BFFEF7A4FD054600BF30688003D1
:102630007FF54CAEFEF79CFD401B64284FF0030075
:10264000F4D928E7411E0020B0EB116F1CBF012018
:1026500070474EF21002CEF2000251604EF6235146
:10266000CEF20001F0230B700721906011607047DB
:102670007047000070470000B0B582B004460068A3
:102680000168C368426901F02F05202D03F0200581
:1026900006D12DB1204602B0BDE8B04001F0B8BA75
:1026A0005FEA017C1EBF02F0010E03F4907212EB90
:1026B0000E0243D1226BCD0618D5012A16D113F094
:1026C000100213D00021019101680191416801912C
:1026D0000199406940063BD4A08DE18DE28D002A2E
:1026E00018BF884240F0F28102B0B0BD0A0640F146
:1026F000E78013F0800200F0E38094F84110212974
:10270000F2D1A168B1F5805F03D12169002900F001
:102710006382216A4A1C226209784160E18C013996
:102720000A04E184E0D1C16821F08001C160C16880
:1027300041F04001C16002B0B0BD00BFCA0718BF80
:1027400013F4807240F0D0804A0700F1D380D8E0C3
:10275000E06B016849688AB2002AC5D0A38D9A420D
:10276000C2D2E185C069B0F5807F00F09D8020680D
:1027700050E8030F216820F4807041E80302DAB1C9
:10278000206850E8030F216820F4807041E80302BC
:1027900092B1206850E8030F216820F4807041E86E
:1027A00003024AB1206850E8030F216820F48070CA
:1027B00041E80302002ADAD1206850E8050F2168B9
:1027C00020F0010041E80502BAB3206850E8050F87
:1027D000216820F0010041E8050272B3206850E84A
:1027E000050F216820F0010041E805022AB32068A6
:1027F00050E8050F216820F0010041E80502002A99
:10280000DAD11AE0206850E8050F216820F0400076
:1028100041E80502DAB1206850E8050F216820F090
:10282000400041E8050292B1206850E8050F216898
:1028300020F0400041E805024AB1206850E8050F49
:10284000216820F0400041E80502002ADAD120206A
:1028500084F8420000202063206850E8030F2168BC
:1028600020F0100041E80302DAB1206850E8030FBD
:10287000216820F0100041E8030292B1206850E87E
:10288000030F216820F0100041E803024AB12068DC
:1028900050E8030F216820F0100041E80302002AED
:1028A000DAD1E06BFEF70EFB02206063A08DE18DB4
:1028B000401A81B2204602B0BDE8B040FFF7D8BE52
:1028C00049067FF511AF13F040013FF40DAFC16829
:1028D00021F04001C1602021204684F8411002B05F
:1028E000BDE8B04000F016BB626C42F001026264C9
:1028F0004A0706D5BEF1000F03D0626C42F0020217
:1029000062648A0706D5BEF1000F03D0626C42F004
:1029100004026264BCF1000F06D55EEA050203D032
:10292000626C42F008026264626C002A3FF4DCAE22
:10293000890604D51DB1204601F06AF92068406976
:10294000616C00F0400001F00801401800F0B68012
:10295000206850E8030F216820F4907041E80302DA
:10296000BAB3206850E8030F216820F4907041E862
:10297000030272B3206850E8030F216820F49070BE
:1029800041E803022AB3206850E8030F216820F4CD
:10299000907041E80302002ADAD11AE0206850E87A
:1029A000050F216820F0010041E80502DAB1206836
:1029B00050E8050F216820F0010041E8050292B1BE
:1029C000206850E8050F216820F0010041E8050269
:1029D0004AB1206850E8050F216820F0010041E865
:1029E0000502002ADAD1206B012824D1206850E8A2
:1029F000030F216820F0100041E80302DAB12068DB
:102A000050E8030F216820F0100041E8030292B162
:102A1000206850E8030F216820F0100041E803020D
:102A20004AB1206850E8030F216820F0100041E807
:102A30000302002ADAD1202084F84200002020631B
:102A400020684069400640F1C180206850E8050FC9
:102A5000216820F0400041E80502DAB1206850E822
:102A6000050F216820F0400041E8050292B120687E
:102A700050E8050F216820F0400041E805024AB106
:102A8000206850E8050F216820F0400041E8050269
:102A9000002ADAD1E06B002800F0988043F6054167
:102AA000C0F600010165FEF755FA00283FF41CAEA0
:102AB000E06B016D02B0BDE8B04008472046FFF76B
:102AC000D9FD0020606402B0B0BD00BF401A00BF55
:102AD000216851E8031F226821F4907142E8031332
:102AE000BBB3216851E8031F226821F4907142E8CA
:102AF000031373B3216851E8031F226821F4907116
:102B000042E803132BB3216851E8031F226821F424
:102B1000907142E80313002BDAD11AE0216851E8E2
:102B2000051F226821F0010142E80513DBB121688D
:102B300051E8051F226821F0010142E8051393B115
:102B4000216851E8051F226821F0010142E80513C0
:102B50004BB1216851E8051F226821F0010142E8CC
:102B60000513002BDAD1202184F8421000212163C3
:102B7000216851E8031F226821F0100142E8031385
:102B8000DBB1216851E8031F226821F0100142E8FF
:102B9000031393B1216851E8031F226821F010014B
:102BA00042E803134BB1216851E8031F226821F06A
:102BB000100142E80313002BDAD1022281B2204631
:102BC000626302B0BDE8B040FFF752BD204602B0DC
:102BD000BDE8B040FFF74EBD216A31F8022B6FF31C
:102BE0005F224260216299E5002804BF01207047FE
:102BF00010B5044690F8410028B9002084F8400040
:102C0000204600F021F8242084F841002068C168A3
:102C100021F40051C160204601F07AF82068016972
:102C200021F490410161416921F02A014161C168AB
:102C300041F40051C16000202021606484F84110FB
:102C400084F84210606310BD016841F20000C4F2D4
:102C50000100814218BF704780B586B0002143F65D
:102C600030020191C4F20202536900F5704043F052
:102C700010035361536903F010030193019B019109
:102C8000136843F001031360126802F0010201921D
:102C9000019A4FF4C06201920222CDE90221032180
:102CA00004910721059101A9FEF77EF92520002155
:102CB0000022FFF7A3F92520FFF78EF906B0BDE843
:102CC0008040704790F84230202B07D100294FF008
:102CD000010318BF002A05D1184670470223184681
:102CE000704700BF00230363816222218285C28571
:102CF000436480F842100169006819B1C16841F469
:102D00008071C160416941F001014161C16841F0D8
:102D10002001C16018467047006841F20001C4F20A
:102D20000101884218BF7047B0B540F2700540F20B
:102D30001814C2F200050120C2F20004687011A14B
:102D4000204615224FF0FF3300F028F814352846AE
:102D5000FDF75CFC82B2204629464FF0FF3300F0BD
:102D60001DF845F29551C0F60001204602224FF0B1
:102D7000FF3300F013F8204629464022BDE8B0405A
:102D8000FFF7A0BF45535033322044617461205295
:102D9000656365697665643A200000002DE9F041BD
:102DA000044690F8410020281CBF0220BDE8F081B5
:102DB0000D4600294FF0010000F0AA801646002AB7
:102DC00008BFBDE8F081002060642120984684F8A7
:102DD0004100FEF7CDF9A684E684A1680646B1F568
:102DE000805F02D12069002862D02F460025E08C48
:102DF000002861D018F1010018D0B8F1000F37D1C8
:102E0000216808E017F8010B4860E08C0138E08485
:102E1000E08C002851D00868000673D5002FF1D14E
:102E200035F8020B00276FF35F20EDE7216802E021
:102E30000868000609D40868000606D40868000679
:102E40005CBF08685FEA0060F2D51FB117F8010B9C
:102E500005E000BF35F8020B00276FF35F204860E4
:102E6000E08C0138E084E08C0028E4D125E000BF4C
:102E7000216800BF0868000608D4FEF779F9801BB6
:102E8000404541D82168C868F4E700BF17B117F87A
:102E9000010B04E035F8020B00276FF35F20486058
:102EA000E08C0138E084E08C0028E3D105E000BF2D
:102EB0000027E08C00289DD12168086840061FD4B7
:102EC000B8F1000F1ED018F101000FD108684006BC
:102ED00016D40868400613D40868400610D4086861
:102EE00040064FF00000F1D50FE000BFFEF740F9BB
:102EF000801B404508D82068C16800684006F5D5A9
:102F0000002002E0FEF734F90320202184F841106C
:102F1000BDE8F08170470000FEE7000040F2C40009
:102F2000C2F20000FEF72EB940F2C400C2F2000067
:102F3000FEF7D0B910B581B000210091806B40F24E
:102F40000801C2F2000190F83DC009684BF28952B5
:102F5000C908C1F2F842A1FB0212110A232251430F
:102F60000091009911B30099013900910168096835
:102F700089051FD50099C9B10099013900910168EF
:102F80000968890516D5009981B100990139009128
:102F90000168096889050DD5009939B10099013991
:102FA0000091016809688905DBD403E0016C41F0F8
:102FB00020010164446B4FF0000E002C1CBF002167
:102FC000E163816B00291CBF0022CA630268002CE8
:102FD000136823F480631360A0F82AE018BFC4F8D4
:102FE00050E000291CBF00230B65116821F001018E
:102FF000116090F83D1060290CD1202180F83D101F
:10300000002180F83E10016401B0BDE81040FEF7D9
:10301000B5B800BF0CF02801282911D1116841F082
:1030200001011160116841F48061116000210163A8
:10303000282180F83D1001B0BDE81040FEF740BCEB
:10304000202180F83D10002180F83E1001B0BDE83D
:103050001040FEF735BC000010B5044690F83D1056
:1030600090F83E00B0F1100218BF0122403818BF9E
:103070000120024208BF222934D001F0280028286C
:103080003AD100202063282084F83D002068416860
:10309000090542D5416821F400614160606B90F8F8
:1030A0003510012958D1A06B42F63571C0F60001E8
:1030B0000165FDF74FFF002861D02068416949068E
:1030C00006D50069616A0870616A20680131616231
:1030D000016821F001010160202084F83D00A06B0F
:1030E0004BE000BF2068026822F400620260426880
:1030F000120505D50CE000BF20684268120507D410
:10310000602905D0202184F83D10002184F83E106C
:103110000021216341680905BCD494F83D10602961
:1031200050D1202184F83D100021216441694906D5
:1031300006D50069616A0870616A206801316162C0
:10314000016821F0010101602046FEF717F8206CAC
:10315000000717D11BE000BF42F63571C0F6000131
:103160000165FDF7F7FE50B12168606B0A6822F037
:1031700001020A60202184F83D10016D8847206C0F
:10318000000704D02068416821F4E061416094F8B0
:103190003D00216C490758BF10BD282810D10020E0
:1031A000CFF6FF70E06200212020216384F83D000B
:1031B000204684F83E10BDE81040FEF735BC00BF45
:1031C00010BD00BF4169490605D50069616A0870F4
:1031D000606A013060622046FEF772FB206C0007D7
:1031E000D0D1D4E7C16A428D042A07D10168426A6E
:1031F0004B6823F480634B60096911E0428D032A18
:1032000016D102680229536823F48063536005D005
:10321000042903D0116821F4806111601169426AA8
:103220001170416A01314162418D01394185704718
:10323000428D022A12D14A1E0F2A19D8DFE802F065
:10324000081218121818181818181818181818082A
:103250000268136823F480630EE000BF0168426ACD
:10326000CAE700BF0268136843F4806304E000BF4C
:103270000268136843F4007313601269436A1A709A
:10328000426AD0F800C0531C4362438D013B438522
:10329000DCF810305370426A036801324262428D9A
:1032A000013A42855A6822F440725A60202280F81E
:1032B0003D2090F83E300022402B80F83E2003D184
:1032C0000263FEF7A5BC00BFB1F1080218BF1222CD
:1032D000203918BF11460163FEF7A8BB81B090F8F2
:1032E0003D10222910D1C16A428D042A0ED30168F3
:1032F000426A09691170416A01314162418D0139A7
:103300004185418D03295DD001B07047C36A012A10
:1033100058D8022B56D00022009240F20802C2F286
:10332000000212684BF28953D208C1F2F843A2FBA3
:1033300003231A0A02EB82020092009A013A0092D9
:10334000009A002A46D0026813689B051AD5009A95
:10335000013A0092009AEAB3026813689B0511D5FE
:10336000009A013A0092009AA2B3026813689B0582
:1033700008D5009A013A0092009A5AB3026813687D
:103380009B05DAD4136823F480631360536823F435
:10339000E06353601269436A1A70426A0132426202
:1033A000428D013A4285202280F83D2090F83E303F
:1033B0000022402B80F83E2028D1026301B0FEF7A6
:1033C00027BC00BF0068416821F48061416001B002
:1033D000704700BF016C41F0200101640168426A3E
:1033E0004B6823F4E0634B6009691170416A013155
:1033F0004162418D01394185202180F83D10002135
:1034000080F83E1001B0FEF75BBA00BFB1F10802D0
:1034100018BF1222203918BF1146016301B0FEF710
:1034200005BB0000C16A90F83D20212A18BF7047F3
:10343000428D4AB1416A026811F8013B1361416251
:10344000418D01394185704711F5803F18BF08292A
:1034500018D101684A6822F4E0624A600A6842F4BE
:1034600000720A6000212022016380F83D2090F85C
:103470003E2080F83E10402A08BFFEF7CBBBFEF787
:10348000D7BA00BF2029E4D001684A6822F4E0627C
:103490004A6011210163002180F83E10202180F84C
:1034A0003D10FEF7C5BA000090F83D1090F83EC000
:1034B000C26A038D002B08BF212919D0212905D00C
:1034C000BCF1400F08BF222900D07047418D69B37D
:1034D00090F83E10402908BF00F040B8416A0268E9
:1034E00011F8013B13614162418D013941857047FB
:1034F00012F5803F18BF082A1ED101684A6822F4DD
:10350000E0624A600A6842F400720A6000212022E8
:10351000016380F83D2090F83E2080F83E10402A5C
:1035200008BFFEF777BBFEF783BA00BF00684168AB
:1035300021F4806141607047202ADED001684A682A
:1035400022F4E0624A6011210163002180F83E10FC
:10355000202180F83D10FEF76BBA000090F83D1076
:10356000026D5AB1026D012A14D10168826CD2B287
:103570000A61016D01310165704700BFC26C816C49
:10358000012A15D10268C9B21161016D02310165CC
:10359000704700BF026D022A12D1222918D101689A
:1035A0000A6842F480720A60016D0131016570475A
:1035B0000268C1F307211161016D01310165704796
:1035C00000684169090644BF00210161704700BFDE
:1035D000428D5AB1212909D1416A026811F8013B93
:1035E00013614162418D013941857047428D002A46
:1035F00008BF2129EAD101684A6822F4E0624A60E2
:103600000A6842F400720A6000212022016380F8F7
:103610003D2080F83E10FEF7FDBA00002DE9F0478E
:1036200082B0044600689A460B9D0A9E0368914644
:1036300043F48062026002680F4642F480710160C8
:1036400020464FF0011100223346009500F0CEF8DD
:1036500050B120680068C00544BF4FF4007020647A
:10366000032002B0BDE8F08740F202082068C0F2F3
:10367000010807F0FE0707612046414632462B4607
:1036800000F09AF920B1012002B0BDE8F08700BF38
:103690000020019020682A464169019180693146E5
:1036A00001900198204600F03BFAB0B92068BAF1C9
:1036B000010F09D04FEA19210161204631462A46FF
:1036C00000F02EFA48B920685FFA89F101612046BE
:1036D00031462A4600F024FA60B1206C0428D2D189
:1036E0002068016841F400710160012002B0BDE86A
:1036F000F08700BF206800220168334641F48071E2
:10370000016020464FF00111009500F06FF800288D
:103710009FD147F0010C27682046414632462B4690
:10372000C7F810C002B0BDE8F04700F045B900008E
:1037300070B50368044653F8140F400711D40E46C1
:10374000481C29D086BB00BF1868400527D4FDF768
:103750000FFD236853F8140F400737D5186840074A
:10376000F2D5002070BD00BF18684007F9D4186872
:10377000400514D418684007F3D4186840050ED4E7
:1037800018684007EDD41868400508D41868400749
:103790004FF0000048BF70BD18684005E4D56FF4D5
:1037A00080601860042012E0154603E053F8140FFF
:1037B0004007D6D418684005F1D4FDF7D9FC401B6A
:1037C0002368B042F2D958694007EFD42020002185
:1037D0002022216384F83D2084F83E10226C10439F
:1037E0002064012084F83C1070BD00002DE9F041F8
:1037F000054600681E46144601F47F0201338FB26D
:1038000042D0DDF81880B2F5803F40F087804069F3
:103810003840C01BB0FA80F04009A04240F0C88098
:103820004EB924E040693840C01BB0FA80F040092E
:10383000A04240F0BD80FDF79BFCA0EB080128688A
:10384000B142EFD941693940C91BB1FA81F1490947
:10385000A142E7D19BE000BF40693840C01BB0FAED
:1038600080F04009A0424FF0000040F0A280FDF738
:103870007FFC286841693940C91BB1FA81F14909C7
:10388000A142E9D183E000BFB2F5803F24D100BF5F
:1038900041693940C91BB1FA81F14909A14240F09F
:1038A000878041693940C91BB1FA81F14909A142B8
:1038B00040F07E8041693940C91BB1FA81F1490964
:1038C000A14275D141693940C91BB1FA81F1490959
:1038D000A142DDD06CE000BF81693940C91BB1FA5B
:1038E00081F14909A14263D181693940C91BB1FA0B
:1038F00081F14909A1425BD181693940C91BB1FA03
:1039000081F14909A14253D181693940C91BB1FAFA
:1039100081F14909A142DFD04AE000BF8069384007
:10392000C01BB0FA80F04009A04241D146B923E063
:1039300080693840C01BB0FA80F04009A04237D1FE
:10394000FDF716FCA0EB08012868B142F0D98169A7
:103950003940C91BB1FA81F14909A142E8D116E009
:1039600080693840C01BB0FA80F04009A0424FF097
:10397000000018BFBDE8F081FDF7FAFB28688169F7
:103980003940C91BB1FA81F14909A142E8D10020AF
:103990002021286385F83D1085F83E00296C41F010
:1039A0002001296485F83C000120BDE8F08100BFBA
:1039B0000020BDE8F0810000F0B581B00446006849
:1039C0001D4643698FB203EA0701B94202D10020C4
:1039D00001B0F0BD4169164601323FD049053FD4E0
:1039E000CEB100BFFDF7C4FB411B2068B14203D933
:1039F00041693940B94215D141693940B942E6D0EF
:103A000041694905EED52BE041693940B942DED024
:103A10004169490524D4FDF7ABFB20684169394071
:103A2000B942F1D0202023E041693940B942CED0DB
:103A30004169490514D441693940B942C7D0416947
:103A400049050DD441693940B942C0D041694905A1
:103A500006D441693940B942B9D041694905E3D535
:103A6000016841F4007101606FF4806141610420DC
:103A700000212022216384F83D2084F83E10226C2E
:103A80001043206484F83C10012001B0F0BD000018
:103A900070B504460068154650F8143F5A063DD4E8
:103AA0000E4629B926E000BF50F8141F490635D448
:103AB0000168C90621D4FDF75BFB411B2068B142B8
:103AC000F2D941694906EFD400202021206384F80F
:103AD0003D1084F83E00206C40F0200018E000BF4C
:103AE000FDF746FB206850F8141F4906ECD5016825
:103AF000490613D40168C906F2D56FF010010160C0
:103B000000202021206384F83D1084F83E00206CC2
:103B10002064002084F83C00012070BD002070BDAE
:103B200070B50368044653F8140F000611D40E460E
:103B3000481C29D086BB00BF1868400527D4FDF774
:103B400017FB236853F8140F000637D518680006D2
:103B5000F2D5002070BD00BF18680006F9D41868BF
:103B6000400514D418680006F3D4186840050ED434
:103B700018680006EDD41868400508D418680006D7
:103B80004FF0000048BF70BD18684005E4D56FF4E1
:103B900080601860042012E0154603E053F8140F0B
:103BA0000006D6D418684005F1D4FDF7E1FA401BB1
:103BB0002368B042F2D958690006EFD420200021D2
:103BC0002022216384F83D2084F83E10226C1043AB
:103BD0002064012084F83C1070BD0000FEE7000066
:103BE000FEE700007047000070470000FEF78AB94A
:103BF0004EF68850CEF20000016841F47001016079
:103C000070470000806B0021C185C184FEF732BD82
:103C100081B090F84210222921D183680246B3F581
:103C2000805F09D152F8281F52F8183C002B63D04E
:103C300003685B680AE000BF52F8281F13B90369E4
:103C4000002BF5D003685B6803F07F030B701168ED
:103C500001311160C18D01390A04C18502D001B062
:103C6000704700BF0168CA6822F02002CA60CA68B3
:103C700022F48072CA604A6922F001024A6120215E
:103C800080F8421000214163026B012A3CD101639C
:103C9000016851E8031F026821F0100142E8031394
:103CA000DBB1016851E8031F026821F0100142E80E
:103CB000031393B1016851E8031F026821F010015A
:103CC00042E803134BB1016851E8031F026821F079
:103CD000100142E80313002BDAD101680A68D2060A
:103CE00006D5002200920A68009249680091009966
:103CF000818D01B0FEF7BCBC026852686FF35F2291
:103D000021F8022B8162A5E701B0FFF705B800009A
:103D100010B504460068D4E902C22369016921F4A0
:103D2000405111430161626943EA0C01E3691143A7
:103D3000C268194349F20C639A431143C160416957
:103D4000A26921F4407141F20043114340F48062C2
:103D5000C4F201039A42416102D1FEF751FA01E037
:103D6000FEF73AFAE16963681922B1F5004FA0FB4A
:103D7000020123D15A00DB0FFCF7A4FA48F21F51CD
:103D8000C5F2EB11A0FB01235A094FF69C73C0F654
:103D9000FF7303F1805302FB0300322303EBC000E7
:103DA000A0FB01014FF4F87000EA111000EB0210C3
:103DB000C1F3421108442168886010BD9A009B0F2E
:103DC000FCF780FA48F21F51C5F2EB11A0FB01236A
:103DD0005A094FF69C73C0F6FF7302FB03003223AF
:103DE00003EB0010A0FB0101F02000EA511000EBF2
:103DF0000210C1F3431108442168886010BD00001F
:103E000040F21810C2F20000FEF736BCFEE70000D8
:103E10009EB043F630070024C4F20207C4F2020445
:103E2000FEF77EF812AD281D2C21FCF70EFC0026B3
:103E30001196CDE90F66CDE90D660C963869022220
:103E400040F080503861386900F080500C900C9838
:103E500047F200000C96CFF6FE70215862F38F31C6
:103E60002150205800F440400C900C9801201590EF
:103E700010201690284612921896FEF70BFA18B1E9
:103E800072B600BFFEE700BF0F20CDE90D060DA8FA
:103E90000021CDE90F661196FEF7ECF810B172B66D
:103EA000FEE700BF0025CDE915550D95386842F2B3
:103EB000161140F0010038603868002200F001005F
:103EC0000D900D980D95386842F2161640F00200DC
:103ED0003860386800F002000D900D982046FDF71C
:103EE00041F909200DF14809CDE91205204649465E
:103EF0001495FDF759F80120CDE9130520464946F0
:103F000012961595FDF750F840F21810A4F570417F
:103F1000C2F200000C234FF4165280E82600C0E9DC
:103F20000355C0E90535C561FEF75EFE10B172B6F6
:103F3000FEE700BF40F2C40045F20041C2F20000BB
:103F4000C4F2000148F2A0624FF48043C0F20102C3
:103F500080E82600C0E90353C0E90555C0E90755CC
:103F6000FDF7B0FC10B172B6FEE700BF40F21816C4
:103F7000C2F20006B4A1304614224FF0FF334FF0D6
:103F8000FF35FEF70BFF6B20ADF8480040F2C40090
:103F9000C2F20000D0214A46022300953546FDF7C3
:103FA00049FDFDF7E5F89FEDA20B804651EC100BA3
:103FB0009FEDA10B40F2700A9FEDA18B40F2C40669
:103FC000C2F2000ACDE90A104FF0000B51EC100BC1
:103FD000C2F20006CDE9081063E000BFBDF848005A
:103FE000C0BA00F077FFDDE9083200F019FE53ECAB
:103FF000182B00F06DFD00F039FD09EE100ACAF82B
:1040000010009AF8000045F2A859002845F2B8506F
:10401000C0F60009C0F6000008BF8146DAF80400C7
:1040200001F05CF941EC1A0BDAF8080001F056F9DE
:1040300041EC1B0BDAF80C0001F050F941EC1C0BC1
:1040400019EE100A01F04AF940F2601441EC100B2D
:10405000C2F2000445F24C512046C0F600014A4627
:104060008DEC06AB8DED060BFCF7A4F92046FCF7B2
:10407000CDFA82B2284621464FF0FF33FEF78EFE7E
:10408000002440F21815C4F202040DF14809C2F2EE
:104090000005FDF76DF8A0EB0B00B0F57A7F80F01E
:1040A00097809AF8010010B3002045F298518AF8E1
:1040B00001002846C0F600010C224FF0FF33FEF746
:1040C0006DFE0AF114073846FCF7A0FA82B22846C2
:1040D00039464FF0FF33FEF761FE45F29551284611
:1040E000C0F6000102224FF0FF33FEF757FEFDF746
:1040F0003FF8A0EB0800B0F57A7FCAD3FDF738F897
:10410000804620460121FDF71FF88AF800000620AE
:1041100001903046D0213B2201234FF0FF37CDF8EC
:1041200000900297FDF778FD50B145F23B512846CB
:10413000C0F6000110224FF0FF33FEF72FFE2CE0F7
:10414000BDF84800C0BA00F0C5FE0B9C0A9D22468F
:104150002B4600F0D7FE00F089FCBDF84A10CAF8E3
:104160000400C8BA00F0B6FE22462B4600F0CAFE94
:1041700000F07CFCBDF84C10CAF80800C8BA00F08A
:10418000A9FE22462B4640F21815C2F2000500F0A7
:10419000B9FE00F06BFCCAF80C000220019030461A
:1041A000D02141220123CDF800900297FDF734FD84
:1041B00000283FF413AF45F223512846C0F6000112
:1041C00016224FF0FF33FEF7E9FD9AED049A18E747
:1041D000FCF7CEFF9AF80110834600293FF461AF47
:1041E00028461FA10C224FF0FF33FEF7D7FD0AF13E
:1041F00014073846FCF70AFA82B2284639464FF0CF
:10420000FF33FEF7CBFD45F295512846C0F600017D
:1042100002224FF0FF33FEF7C1FD20461021FCF7CC
:1042200099FF4FF47A70FCF7ABFE3AE700BF00BF8E
:10423000000000000000103F00000000004075403A
:10424000A4703D0AD743424053797374656D204989
:104250006E697469616C697A65640D0A000000001A
:1042600052652D73656E64696E673A200000000028
:104270005FEA400C08BF91F0000F4FEA8C234FEA31
:10428000C12243EA51514FEA1C5018BF00F5F040DB
:104290004FEA300018BF41F000415FEA6C5C00F06B
:1042A0002980BCF1FF3F08BF40F080407047130CED
:1042B00006BF12044FF0100C4FF0000C130E04BF99
:1042C00012020CF1080C130F04BF12010CF1040CC4
:1042D000930F04BF92000CF1020CD30F04BF5200E5
:1042E0000CF1010C11464FF00002A0F11F00A0EBF1
:1042F0000C00704711F0004F08BF704731F00041CB
:104300003FF4D5AF0B0C06BF09044FF0100C4FF073
:10431000000C0B0E04BF09020CF1080C0B0F04BFBC
:1043200009010CF1040C8B0F04BF89000CF1020C85
:10433000CB0F04BF49000CF1010CCCF1200322FA91
:1043400003F341EA030102FA0CF2A0EB0C0000F1C6
:104350000100704723F07F4720F07F4C80EA030084
:1043600000F00040ACEB070303F57C5303F1FF03BF
:104370002DE9804909B44FEA144324EA03484FEA7F
:10438000154B25EA0B4E0FF2042606EB13273E7859
:1043900003FB0667C7F5000707FB06F64FEAD6469C
:1043A00006F102064FEA543707FB066CCCF1005CBD
:1043B0004FEA1C472CEA074C0CFB06F507FB06F4FA
:1043C00004EB15464FEA961649085FEA320234BFFD
:1043D00000204FF000404FEAD13706FB07FC4FEAC0
:1043E0001C4C0CFB0BF7D21B03FB0CF761EB07011A
:1043F0000CFB0EF7B0EB074072EB17420CFB08F713
:1044000034BFA2EB0742B2EB074261EB17414FEA20
:104410000C444FEA910706FB07FC4FEA1C4C0CFBCF
:104420000BF7B0EBC74072EB573203FB0CF734BF0E
:10443000A2EBC742B2EBC74261EB57310CFB0EF760
:10444000B0EBC70072EB57720CFB08F734BFA2EB5E
:10445000C702B2EBC70261EB57714FEA816141EAD3
:1044600092114FEA826242EA90124FEA806004EBB6
:10447000CC04039F4FEAD13706FB07FC4FEA1C4CE4
:104480000CFB0BF7D21B03FB0CF761EB07010CFBDA
:104490000EF7B0EB074072EB17420CFB08F734BF86
:1044A000A2EB0742B2EB074261EB17414FEA8C5592
:1044B00004EB9C244FEA910706FB07FC4FEA1C4CD7
:1044C0000CFB0BF7B0EBC74072EB573203FB0CF75A
:1044D00034BFA2EBC742B2EBC74261EB57310CFBD2
:1044E0000EF7B0EBC70072EB57720CFB08F734BF46
:1044F000A2EBC702B2EBC70261EB57714FEA8161D1
:1045000041EA92114FEA826242EA90124FEA8060D9
:1045100015EB4C2544F100044FEAD13706FB07FCAC
:104520004FEA1C4C0CFB0BF7D21B03FB0CF761EBA7
:1045300007010CFB0EF7B0EB074072EB17420CFBC8
:1045400008F734BFA2EB0742B2EB074261EB174119
:104550004FEA813141EA92414FEA823242EA904287
:104560004FEA80304FEA0C7615EB1C1544F100043D
:1045700048EA03434EEA0B484FF0000EB2EB080C3A
:1045800071EB030724BF624639464EEB0E0E4FF027
:10459000000B0018524149414BEB0B0BB2EB080CDE
:1045A00071EB03077BF1000B24BF624639464EEBEB
:1045B0000E0E4FF0000B0018524149414BEB0B0B14
:1045C000B2EB080C71EB03077BF1000B24BF6246D2
:1045D00039464EEB0E0E51EA020718BF46F00106AF
:1045E00016EB0E7655F1000254F1000103D5BDE83B
:1045F0008901BDE80088BDE88901BDE80048B61919
:10460000524141EB0101A3F10103704780807F7E9D
:104610007D7C7B7A79787776767574737271717038
:104620006F6E6E6D6C6C6B6A6A69686867666665EA
:104630006464636362616160605F5F5E5E5D5D5C78
:104640005C5B5B5A5A5959585857575656555555E9
:104650005454535352525251515050504F4F4F4E49
:104660004E4D4D4D4C4C4C4B4B4B4A4A4A49494997
:1046700048484847474747464646454545444444D9
:104680004443434343424242424141419C46002B02
:1046900030D477002BD04FEA37071CB503B44FF066
:1046A00010004FF01001BAF1000F06D0BCF1000F5E
:1046B000DCBF40F0080040F008014FF000000FBCE4
:1046C000BDE810400BF1010BBBF1010F08BF5FEA21
:1046D000170722BF12F1010211F101014FF0004151
:1046E00043F1000300F0004043EA00007047F9D3B3
:1046F0005708D0E746EA06464FEA164613F1400F40
:104700001FDD13F1200FDFBF16430A4600212033BF
:104710005B42BED0C3F1200746EA06464FEA164682
:1047200002FA07F746EA070622FA03F2C3F1200766
:1047300001FA07F742EA070221FA03F14FF00003FA
:10474000A7E746EA020646EA06464FEA164646EA62
:104750000106BCBF46EA0646360C4FF000034FF098
:1047600000024FF0000194E72DE9804C70B49A46A6
:10477000934691E8380007C831EA400C48BF34EA54
:10478000430C03D5FFF7E6FDFFF780FFF0BCBDE863
:10479000008C2DE9804C70B49A46934691E838001D
:1047A00007C810F0804F08BF13F0804F03D100F00E
:1047B00005F8FFF76BFFF0BCBDE8008C20F07F47E9
:1047C00023F07F4C80EA030000F0004007EB0C036D
:1047D000A3F57C53A3F1FE0392F0000F00F0B38029
:1047E00095F0000F00F077802DE901494FEA114064
:1047F00021EA00484FEA144624EA064700FB06FC7B
:1048000008FB06F607FB08F818EB06484CEB164CBD
:1048100000FB07F718EB07484CEB17404FEA124B29
:1048200022EA0B4E4FEA154625EA06470BFB06FC2B
:104830000EFB06F607FB0EFE1EEB064E4CEB164C6F
:104840000BFB07F71EEB074E4CEB174B18EB0B0857
:1048500040F1000018EB0E0B58EB000840F100008F
:104860008F1A4FF000014FF000063CBFC943661B92
:1048700014BFB5EB040C00213CBFC943F61B4FEA43
:10488000174427EA04454FEA1C472CEA074C04FB6F
:10489000076205FB07F70CFB05F616EB074642EB34
:1048A000174204FB0CFC16EB0C4642EB1C421BEBC4
:1048B000060658EB020241414EEA8E0E46EA9E067B
:1048C00001D5BDE80189B619524141EB0101A3F1BF
:1048D0000103BDE801894FEA144524EA05464FEA81
:1048E000114721EA074C05FB07F406FB07F70CFB11
:1048F00006F111EB074144EB174405FB0CFC11EBEF
:104900000C4144EB1C444FEA124722EA074C05FBDA
:1049100007F206FB07F70CFB06F616EB074642EB21
:10492000174205FB0CFC16EB0C4642EB1C456A18C3
:1049300054F1000148BF7047B619524141EB0101E3
:10494000A3F10103704795F0000F37D04FEA1142F1
:1049500021EA02464FEA144724EA074C02FB07F11A
:1049600006FB07F70CFB06F414EB074441EB174179
:1049700002FB0CFC14EB0C4441EB1C414FEA1547C5
:1049800025EA074C02FB07F506FB07F70CFB06F6CA
:1049900016EB074645EB174502FB0CFC16EB0C46E5
:1049A00045EB1C42121951F1000148BF7047B6197E
:1049B000524141EB0101A3F1010370474FEA144555
:1049C00024EA05464FEA114721EA074C05FB07F1A7
:1049D00006FB07F70CFB06F212EB074241EB17410F
:1049E00005FB0CFC12EB0C4251EB1C414FF0000696
:1049F00048BF7047921841EB0101A3F101037047D2
:104A000003B401984100009850EAC12018BF042067
:104A10004A0D18BF40F0010040F2FF72B2EB515F47
:104A200008BF40F00200012808BF052002B070470F
:104A300030380A2801D2012070470020704700005A
:104A400010B500290AD00878002807D00548784416
:104A5000FCF7EEF9002801D0002010BD0248784490
:104A600010BD0000960B00008E0B000021F00042EC
:104A700001F00043A2F16052B2F5801F28BFD2F1CD
:104A80007F6C0BD95FEA001C43EAC20242EB507014
:104A900018BF704728BF20F001007047B2F5801F93
:104AA000BCBF184670474FEA410C1CF5001F02D2EC
:104AB000084600F091BC70B500F0CEFA0000008905
:104AC000FFF7F6BF4FF00040A0F5800070470000F0
:104AD00010B591EA030F48BF83F0004300F118833B
:104AE000841A71EB030C05D2121943EB0C03001B63
:104AF00061EB0C014FEA1154A4EB135CDFF81CE1ED
:104B00001EEA430F18BF9EEA445F00F0748021EA5A
:104B1000045123EA0E0343F48013DCF1200E32D358
:104B200022FA0CFE10EB0E0023FA0CFE41EB0E01F4
:104B3000CCF1200E03FA0EFE10EB0E00CCF1200E8D
:104B400051F10001B1F5801F32D201EB045112FA8C
:104B50000EF2BDE8104058BF7047401C38BF5FEAF6
:104B6000420218BF7047002814BF20F0010041F135
:104B700000014FEA410313F5001F38BF7047A1F150
:104B8000C04100F0B7BA012A43EB0302ACF1200C9C
:104B9000DCF11F0E32BF4FF0000E23FA0CF310EBC6
:104BA000030041EB0451B4EB115FD0D0A1EB0451F1
:104BB00001F58011490801EB04515FEA30000ED382
:104BC00050F1000038BF12FA0EFE08D1BDE81040C7
:104BD000C9E7401C38BF5FEA4202CAD1C3E7BDE85B
:104BE00010404FEA410313F5001F38BF7047A1F191
:104BF000C04100F07FBA9EEA445F08D011EA5E0F20
:104C0000BDE8104004BF01F0004100207047BDE83E
:104C1000104070B500F020FA64FBBE3E0000E0FFDB
:104C20002DE9C04130B4DFF8A4C23CEA111418BF2A
:104C30003CEA131400F0ED801CEA111481EA03052C
:104C400044EAD57418BF1CEA131500F0C880A4EB21
:104C5000050404F17F7404F500344FF0004545EA83
:104C6000C12145EAC32341EA505143EA52534FEA76
:104C7000C0204FEAC222994208BF904200F09D80B6
:104C80004FEA13650FF24416765D4FEA134506FBB3
:104C900005F7C7F1807706FB07F74FEAD737A7FB81
:104CA00003687642A7FB06CEC8F5803838BFA8F166
:104CB000010807FB08E6A6FB028C4FF0000EE6FB9E
:104CC00003CEDCF1000CCEF1004E38BFAEF1010E88
:104CD000A6FB0C584FF00007E6FB0E87A1FB08C6A9
:104CE000A0FB07CE16EB0E064FF0000545F10005C0
:104CF000E1FB076515F1E04E7EBFA4F580345FEA65
:104D000046066D4116F1800745F100054FEA172769
:104D100047EA05674FEA15254FEA0666A6F1DE4623
:104D2000B6F1805F20D9384605EBC47124F0010C40
:104D300001EB0C11BCF1FE6F02D8F0BCBDE80081A4
:104D400024425CBF01F5801E9EEAC47F02D4F0BC01
:104D5000BDE80081244200F13980A1F1C041F0BCDE
:104D6000BDE8004100F0C6B94FEAD02040EA41500A
:104D70004FEAD1214FEAD22242EA43524FEAD323EB
:104D8000A7FB028607FB036605FB02661EEA0E0F01
:104D900058BFA6EB0056B6EB00564FEA520E4EEA4D
:104DA000C37E18EB0E0E56EB530EBCD518EB020863
:104DB0005E417F1C55F10005B5E74FF480154FF0BB
:104DC00000074FF000064FF00008ACE701F1C041CA
:104DD00001F000414FF00000F0BCBDE800810CEA9A
:104DE000131511EA0C1F00D00CE013EA0C1F00F0A1
:104DF00026804FF0000081EA030101F00041F0BC81
:104E0000BDE80081F0BCBDE8004181EA030100F08B
:104E100071B9F0BCBDE8004170B500F01DF900BFEC
:104E2000097EFC3E00F007B84FF0000081EA030164
:104E300001F00041704781EA030100F05BB9F0BC6A
:104E4000BDE8004122494FF000007047FFFDFBF92B
:104E5000F7F5F4F2F0EEEDEBE9E8E6E4E3E1E0DEAD
:104E6000DDDBDAD8D7D5D4D3D1D0CFCDCCCBCAC81F
:104E7000C7C6C5C4C2C1C0BFBEBDBCBBBAB9B8B746
:104E8000B6B5B4B3B2B1B0AFAEADACABAAA9A8A839
:104E9000A7A6A5A4A3A3A2A1A09F9F9E9D9C9C9B07
:104EA0009A999998979796959594939392919190B2
:104EB0008F8F8E8E8D8C8C8B8B8A89898888878743
:104EC0008685858484838382828181800000FF07B8
:104ED0000000F87F10F0004248BF4042B0FA80F373
:104EE00010FA03F10AD0C3F11D0303F5806302EB4E
:104EF00003524FEA415002EBD12170474FF00000BE
:104F00007047000070B5DFF848C11CEA111E1EBFD3
:104F10001CEA13159EEA0C0F95EA0C0F00F06F8047
:104F200081EA03044EEAD47EAE4421EA4C1123EA1E
:104F30004C1341F4801143F48013AEF17F7EA1FB4A
:104F4000024CA0FB0365361955EB0C05A1FB034C85
:104F50004CF10003A0FB021C16EB0C06654153F15B
:104F60000003094218BF46F0010613F4007F0BD17D
:104F70004FEA03314FEA053041EA155140EA165035
:104F800034036FF003020AE04FEAC3214FEAC52061
:104F900041EA555140EA5650F4026FF0020202EB2A
:104FA0002E4201EB025585EACE710AD05FEA440C2D
:104FB00018BF24F0004450F1000041F1000120EA44
:104FC000D47040F2FE7C624500D270BDA84214BF8E
:104FD0004FF080444FF04044002E08BF0024BEF143
:104FE000806FA8BFA1F1C041BDE8704080F282800F
:104FF00001F1C04101F000414FF0000070470CEAA0
:1050000013159EEA0C0F18BF95EA0C0F06D081EA23
:10501000030E4FF000000EF0004170BD00F01CF8D0
:105020008900013E00F007B800F009B84FEA430CD0
:105030005FEA5C5C08D081EA030100F05BB84FEAEC
:10504000410C5FEA5C5CF6D102494FF0000070470A
:105050000000FF070000F87F0EF1020E2EF0030E95
:105060005EF8046B364205D4012A43EB030515F5BF
:10507000001F12D8012841EB010C1CF5001F0CD8B1
:105080000ED14FEAD17C0CEB4C0C0CF1020C15F557
:10509000001F08BF4CEBD37C04E04FF0080C01E08C
:1050A0004FEAD37C0CEB4C0526FA05F606F0070612
:1050B000B6F1040C06D20EEB860CBDE870404CF045
:1050C000010C6047DFE80CF0090B02024FF00041D1
:1050D000A1F500214FF0000070BD194610460128CF
:1050E00051EB010418BFD4F5001484BF002001F077
:1050F000004170BD0808A0F500114FEA310170476A
:1051000010B591EA030F48BF83F000433FF5E8ACC8
:10511000841A71EB030C07D28CF0004C121943EB8C
:105120000C03001B61EB0C014FEA1154A4EB135C60
:10513000DFF8A4E11EEA430F18BF9EEA445F00F0C7
:10514000B48021EA045123EA6E035242C3EB6E039A
:1051500038BF5B1EDCF1200E25D322FA0CFE10EBCB
:105160000E0043FA0CFE41EB0E01CCF1200E03FAC7
:105170000EFE10EB0E00CCF1200E51F1000129D4EF
:1051800001EB045112FA0EF2BDE8104058BF70470F
:10519000401C1CBFB2F1004F704700280CBF491CD7
:1051A00020F00100704712EB020E43EB030218BF20
:1051B0004FF0010E4EEA4202ACF1200CDCF11E0E63
:1051C00056D943FA0CFE10EB0E00CCF11E0E51F135
:1051D000FF31D5D50EF1010E12FA0EFE404141EB22
:1051E000010101EB445C5FEA5C5C10D901EB045106
:1051F00010EBDE7038BFBEF1004FBDE8104018BFA5
:10520000704700280CBF491C20F00100704734D2C1
:105210004FEAD42C24F4006411F500111BD0B1FA2C
:1052200081F20B3AA41AA41ED2F12003914030FA65
:1052300003F31943904001EBCC7101EB0451002CB6
:10524000BDE81040A8BF704701F1C04101F0004126
:105250004FF000007047B0FA80F310FA03F102D16A
:10526000BDE810407047E41A173C4805C90AE2E758
:1052700001EB0451BDE81040704749104FEA30007F
:1052800001EB0451BDE8104002E04FF0000170470F
:105290004A0008BF0042F8D0B2F5001F28BF70478F
:1052A00001F000414FF0000070479EEA445F07D0D4
:1052B00011EA5E0FBDE8104004BF002100207047D6
:1052C000BDE8104070B5FFF7C7FE00BF40DFF63EF7
:1052D000104683F0004170470000E0FF43004FEAB2
:1052E000D30C4FEA3C0C43401FBF40070CF1605108
:1052F00013F0FE4F70471CF0006F03D10CF000411B
:10530000002070470CF0004343EA507040EACC00A4
:1053100010B500F00EF800BF000000924FEA000147
:10532000FFF7E8BE4FF00041A1F500214FF000006B
:1053300070470EF1020E2EF0030E5EF8044B24426D
:1053400004D44FEA4102B2F17F4F11D84FEA400333
:10535000B3F17F4F0CD80ED14FEAD07C0CEB4C0C44
:105360000CF1020CB2F17F4F08BF4CEBD17C04E092
:105370004FF0080C01E04FEAD17C0CEB4C0324FA0F
:1053800003F404F00704B4F1040C06D20EEB840C11
:10539000BDE810404CF0010C6047DFE80CF0070856
:1053A00002024FF00040A0F5800010BD0846420008
:1053B00018BFD2F1807288BF00F0004010BDF1EE3E
:1053C000100A4FF6FF71C0F2C03120EA010040F030
:1053D0004070E1EE100A7047FF2141EAD050C0054D
:1053E0007047FBF78DBA30313233343536373839C0
:1053F0004142434445464030580030313233343521
:10540000363738396162636465664030780004007D
:105410000008000000000000000200010000100071
:1054200002400000000000A0000000000540000055
:10543000000000C8000000000C4000000000409C7C
:1054400000000000194000000020BCBE0000000069
:1054500034400000BFC91B8E00000004B5400000AE
:10546000504BCFD06607E2CF010000006C41000036
:105470003E8251AADFEEA73401000000D9420000AD
:10548000DCB5A0E23A301F97FFFFFFFFB4450000F4
:10549000FD25A0C8E9A3C14FFFFFFFFFFF3F0000AC
:1054A0000000008000000000FF3F000000000080BE
:1054B00000000000000000000000000001020304E2
:1054C0000607080900000000010203045541525478
:1054D0003A2025730D0A5049522053656E736F723E
:1054E0003A2025730D0A4D5055363035303A202577
:1054F000732028416363656C20583A20252E32665C
:105500002C20593A20252E32662C205A3A20252E5E
:1055100032662C204352433A2030782530325829C5
:105520000D0A004932432052656164204572726F52
:1055300072202854656D70290D0A004932432052AB
:10554000656164204572726F720D0A007B225049BA
:1055500052223A222573222C2022416363656C5F1C
:1055600058223A252E32662C2022416363656C5FF7
:1055700059223A252E32662C2022416363656C5FE6
:105580005A223A252E32662C202254656D70223A1A
:10559000252E32667D0D0A0045535033322044617A
:1055A00074613A20004F4B004D6F74696F6E204458
:1055B00065746563746564004E6F204D6F74696F28
:1055C0006E000000005600080000002010000000DF
:1055D000F8010008105600081000002058080000CC
:1055E000180200081C00000043000000F8FFFFFF45
:1055F0000C0000000E0000000F0000002E00000054
:1056000001000000100000000024F4000000000071
:040000050800019559
:00000001FF
